:020000040800F2
:10000000400A002089510008BD050008BF0500080E
:10001000C3050008C7050008CB0500080000000064
:10002000000000000000000000000000CF050008F4
:10003000D105000800000000D3050008D505000820
:10004000A3510008A3510008A3510008A3510008C0
:10005000A3510008A3510008A3510008A3510008B0
:10006000A3510008A3510008A3510008A3510008A0
:10007000A3510008A3510008A3510008A351000890
:10008000A3510008A3510008A3510008A351000880
:10009000A3510008A3510008A3510008A351000870
:1000A000A3510008A3510008A3510008A351000860
:1000B000B34B0008A3510008A3510008A351000846
:1000C000A3510008A3510008A3510008A351000840
:1000D000A3510008FD500008A3510008A3510008D7
:1000E000A3510008A3510008A3510008A351000820
:1000F000A3510008A3510008A3510008A351000810
:10010000A3510008A3510008A3510008A3510008FF
:10011000A3510008A3510008A3510008A3510008EF
:10012000A3510008A3510008A3510008A3510008DF
:1001300000F002F800F088F80AA090E8000C824471
:100140008344AAF10107DA4501D100F07DF8AFF24E
:10015000090EBAE80F0013F0010F18BFFB1A43F0A5
:1001600001031847A8900000C89000000A444FF00F
:10017000000C10F8013B13F0070408BF10F8014B06
:100180001D1108BF10F8015B641E05D010F8016B4B
:10019000641E01F8016BF9D113F0080F1EBF10F8AF
:1001A000014BAD1C0C1B09D16D1E58BF01F801CBD2
:1001B000FAD505E014F8016B01F8016B6D1EF9D555
:1001C0009142D6D37047000000230024002500266A
:1001D000103A28BF78C1FBD8520728BF30C148BFAA
:1001E0000B6070476E2906F0C187702907F08E807A
:1001F000692906F07F87642906F07C87752906F057
:1002000079876F2907F02480782907F072800368C6
:10021000DB0928BF41F08001632907F0EC817329D5
:1002200007F0F181E32907F00F82002070471FB526
:1002300007F080FA04000020002107F091FA401C2A
:1002400060601FBD10B510BD07F04EFA1146FFF7F4
:10025000EEFF00F009F807F071FA03B4FFF7F2FFC0
:1002600003BC04F0F1FE000086B004F083FE4FF4FE
:10027000165004F0F7FE00F09FFA01F02EFB04F098
:1002800031FD04F03BFB04F0A6FB002141F61F40CA
:1002900004F0BBFC04F010FC0020AE490880AE481E
:1002A0008288AEA103A806F0B7FE002000901023BC
:1002B000ADA20A210190084604F067FA00200090E0
:1002C0001023AAA20A2101901A2004F05EFA00204D
:1002D00000901023A6A20A2101902A2004F055FACA
:1002E000002000901023A3A20A2101903A2004F0DC
:1002F0004CFA0020009010239FA20A2101904A206E
:1003000004F043FA0020009010239CA20A210190DF
:100310005A2004F03AFA00200090102398A21E21DF
:1003200001900A2004F031FA00200090102395A2D9
:100330001E2101901A2004F028FA002000901023BA
:100340008CA21E2101902A2004F01FFA00200090A8
:10035000102389A21E2101903A2004F016FA0020F1
:100360000090102385A21E2101905A2004F00DFA5E
:100370000020009010237CA2322101900A2004F07A
:1003800004FA00200090102378A2322101901A2054
:1003900004F0FBF900200090102376A23221019096
:1003A0002A2004F0F2F900200090102372A23221DA
:1003B00001903A2004F0E9F90020009010236FA288
:1003C000322101905A2004F0E0F9C2E00020614996
:1003D000088004F0B0FC6C4908600846006840B131
:1003E0001020022300900846462102680A2004F0EB
:1003F000F0F86548016865A006F00EFE10210B209C
:1004000004F0D5FA634908801020032300900846C1
:1004100002881E216A2004F0DCF85F485F490978F1
:1004200030F811005E4908805A4800880A2190FB84
:10043000F1F0C8385849594A127821F81200084694
:100440005649097830F811205448017855A006F033
:10045000E3FD52480078401CDC2190FBF1F201FBE7
:1004600012004E4908704FF49B730B2264210A203E
:1004700003F04DFF4FF49B73E622591E0A2003F050
:1004800046FF46480078441C2CE044480078201A77
:1004900000F10905404830F81400C0F59B76601E55
:1004A0003D4931F81000C0F59B77B9B2A8B24FF6BC
:1004B000FF7200F0EDFD384801884FF6FF72DC2036
:1004C00000F0E6FDB1B2A8B2002200F0E1FD334831
:1004D0000078DB2805D1B1B2A8B24FF6FF7200F068
:1004E000D7FD641CDC2CD0DB00242EE004F1DC0002
:1004F0002A490978401A00F10A05274830F8140003
:10050000C0F59B76601E244931F81000C0F59B773A
:10051000B9B2A8B24FF6FF7200F0BAFD1E480188CA
:100520004FF6FF72DC2000F0B3FDB1B2A8B200229A
:1005300000F0AEFD19480078DB2805D1B1B2A8B2B1
:100540004FF6FF7200F0A4FD641C1448007884424A
:10055000CCDB3BE720000020080300204C43442074
:1005600049443A2530345800D0FD0000D7AA000095
:10057000B1DB0000BDC70000B6C800003A000000B3
:10058000B0DA0000B8CB00000000002025640D0A9E
:10059000000000000400002050010020080000209E
:1005A00006000020616E676C655F6275665B25649E
:1005B0005D203D2025640D0A00000000704700BF4B
:1005C000FEE700BFFEE700BFFEE700BFFEE77047A3
:1005D00070477047704700000CB5002001900090F4
:1005E0006C48006840F480306A49086000BF694880
:1005F000006800F4003000900198401C01900098C1
:1006000018B90198B0F5A06FF1D16248006800F404
:10061000003010B10120009001E00020009000980F
:10062000012843D15C48006840F010005A49086036
:100630000846006820F0030008600846006840F0A3
:1006400002000860534840685249486008464068C4
:1006500048600846406840F480604860084640684A
:1006600020F47C1048600846406840F4E810486078
:100670000846006840F08070086000BF4548006888
:1006800000F000700028F9D04248406820F00300D4
:10069000404948600846406840F00200486000BF9A
:1006A0003C48406800F00C000828F9D10CBD10B59A
:1006B000FFF792FF10BD10B53648006840F001000A
:1006C0003449086008464068344908403149486068
:1006D00008460068324908402E490860084600680C
:1006E00020F4802008600846406820F4FE0048603E
:1006F0004FF41F008860FFF7DAFF4FF000602949D0
:10070000086010BD10B5002100200022214B5B685D
:1007100003F00C0121B1042906D0082928D107E0F3
:10072000214B224C236027E01F4B204C236023E009
:10073000184B5B6803F47010164B5B6803F480324F
:10074000022303EB904022B9194B4343174C23601B
:100750000DE0104B5B6803F4003323B1144B4343AB
:10076000124C236003E0104B4343104C236003E022
:100770000D4B0E4C236000BF00BF064B5B68C3F3FC
:1007800003130C4CE15C094B1B68CB40074C236006
:1007900010BD000000100240002002400000FFF8E1
:1007A000FFFFF6FE08ED00E000127A000C000020CA
:1007B00000093D001000002008B50121242005F0AB
:1007C0001FF84FF48070ADF8000010208DF8030082
:1007D00003208DF802006946094804F055FD4FF4E6
:1007E0008071074804F0FDFD0420ADF80000694663
:1007F000044804F049FD0421024804F0F2FD08BD5C
:1008000000080140001401404FF48071F84A516122
:1008100049005161F74908608021516111618900E7
:10082000116170474FF48071F14A116149005161C3
:10083000F0490860802151611161890011617047A0
:1008400000BF0100A0F10102D0B2FAD1704700B59B
:100850004FF08830E7490C390860091D0860002016
:10086000E44908608815E249086140004861402079
:1008700048610220FFF7E4FFDE48001F006883B2F2
:100880004020DB490861C00008614FF03330D9498E
:100890000C390860091D08604FF6FF70D5490860E3
:1008A000184600BD10B504460B462046FFF7ACFFC6
:1008B0004FF48070CE49086140004861CD48036024
:1008C0008020486108618000086110BD10B50446B1
:1008D0002046FFF799FFFFF7BAFF10BD00B5C649E4
:1008E0000889FFF791FF00BD4FF48071C04A116184
:1008F00049005161BF49086080215161116189003F
:100900001161704730B5014601F01F04C1F3451372
:10091000CA0AE50205EB43151544A8B230BD10B56F
:1009200003460C46B448808841F6631188427DD165
:10093000B148807900283FD1AF480088401EC01AD6
:1009400083B2AD494889FFF75FFF4FF48070A84933
:100950000861400048610020A64908608020A44941
:1009600048610861800008614010086140004861EA
:100970000020A049086080209D49486108618000EE
:1009800008614010086140004861181299490860E8
:100990008020974948610861800008614010086123
:1009A00040004861D8B2934908608020904948616E
:1009B00008618000086141E08F494889FFF724FF02
:1009C0004FF480708A4908614000486118128949D3
:1009D00008608020864948610861800008614010F5
:1009E000086140004861D8B282490860802080498F
:1009F000486108618000086140100861400048615A
:100A00007D480088401E00127A490860802078499D
:100A10004861086180000861401008614000486139
:100A200075480078401EC0B2724900E047E0086097
:100A300080206F4948610861800008616E4988899B
:100A4000FFF7E2FE4FF48070694908614000486199
:100A5000201268490860802065494861086180006B
:100A600008614010086140004861E0B261490860D7
:100A700080205F494861086180000861401008617A
:100A8000400048615C484088401E00125949086097
:100A90008020574948610861800008614010086162
:100AA0004000486154488078401EC0B251490860F7
:100AB00080204F49486108618000086196E04E48F7
:100AC000808845F21051884250D14B494889FFF740
:100AD0009BFE4FF48070464908614000486118123F
:100AE00044490860802042494861086180000861EB
:100AF00041494989491C88B2FFF786FE4FF480704E
:100B00003B49086140004861D8B23A4908608020FA
:100B10003749486108618000086137498889FFF7D3
:100B200073FE4FF480703249086140004861201222
:100B30003049086080202E494861086180000861C2
:100B40002D498989491C88B2FFF75EFE4FF48070F9
:100B50002749086140004861E0B2264908608020CA
:100B6000234948610861800008613FE022494889C3
:100B7000FFF74AFE4FF480701D490861400048614C
:100B800018121C49086080201949486108618000DA
:100B900008614010086140004861D8B215490860FA
:100BA00080201349486108618000086112498889E2
:100BB000FFF72AFE4FF480700D490861400048613C
:100BC00020120C49086080200949486108618000B2
:100BD00008614010086140004861E0B205490860C2
:100BE00080200349486108618000086110BD000051
:100BF000001001400C0C0140080300202DE9F041D9
:100C000005460E46FE480088A84203DDFC484088A1
:100C1000B04202DC0020BDE8F08131462846FFF7F3
:100C20007EFEF748808845F21051884204D14FF487
:100C30003850FFF7E9FD02E02E20FFF7E5FDFFF752
:100C400006FE0446EE48808841F66311884201D1D1
:100C50002046E0E7FFF7FBFD0446FFF7F8FD80467E
:100C6000E7B24FF6FF7000EA0727E012C002B912A0
:100C700040EA411040EAE820CDE700B5E04880882E
:100C800045F21051884204D14FF42450FFF7BCFDC7
:100C900002E02920FFF7B8FD00BD00B5D8488088E4
:100CA00045F21051884204D14FF42050FFF7ACFDBB
:100CB00002E02820FFF7A8FD00BDF0B5054600249E
:100CC0000027CF488079012805D1CD48808841F69A
:100CD0006311884208D1CA488079F0B9C848808831
:100CE00041F66311884218D1082D15D2DFE805F0CE
:100CF0000406080A0C0E101206250DE007250BE06D
:100D0000042509E0052507E0012505E0002503E0AD
:100D1000032501E0022500BF00BF082D1CD2DFE83B
:100D200005F00406090C0F12151800BF14E044F07A
:100D3000800411E044F040040EE044F0C0040BE0F5
:100D400044F0200408E044F0600405E044F0A0040E
:100D500002E044F0E00400BF00BFA948808845F2EB
:100D60001051884202D14FF4585700E03627A4486A
:100D7000808849F24131884205D0A148808847F2F5
:100D80008971884201D144F0080421463846FFF7B2
:100D900089FD9B48808841F6631188421DD004F08C
:100DA000200068B19648008895494988884214DA3D
:100DB00093480688408892490880084646800CE09F
:100DC0008F4800888E494988884206DD8C4806880D
:100DD00040888B490880084646808948808845F2CB
:100DE000105188427ED186494889FFF70DFD4FF4A6
:100DF0008070844908614000486100208249086091
:100E00008020804948610861800008617C494989E7
:100E1000491C88B2FFF7F8FC4FF4807079490861EB
:100E20004000486100207849086080207549486189
:100E300008618000086172494989891C88B2FFF7FE
:100E4000E3FC4FF480706F490861400048616C48D2
:100E50000088401E00126C49086080206949486182
:100E600008618000086166494989C91C88B2FFF79A
:100E7000CBFC4FF4807063490861400048616048D2
:100E80000078401EC0B26049086080205D4948611A
:100E90000861800008615A498889FFF7B5FC4FF462
:100EA0008070584908614000486100205649086038
:100EB000802054494861086180000861504989894F
:100EC000491C88B2FFF7A0FC4FF480704D490861BF
:100ED0004000486100204C49086080204949486131
:100EE000086100E032E08000086145498989891C79
:100EF00088B2FFF789FC4FF48070424908614000D6
:100F000048613F484088401E00123F4908608020E9
:100F10003C49486108618000086139498989C91CD8
:100F200088B2FFF771FC4FF48070364908614000C9
:100F3000486133488078401EC0B233490860802041
:100F40003049486108618000086186E02C49488981
:100F5000FFF75AFC4FF480702A490861400048614D
:100F600000202949086080202649486108618000E6
:100F70000861401008614000486100202249086073
:100F800080202049486108618000086140100861A4
:100F9000400048611A480088401E00121A49086043
:100FA000802018494861086180000861401008618C
:100FB0004000486112480078401EC0B212490860E3
:100FC0008020104948610861800008610C498889C7
:100FD000FFF71AFC4FF480700A490861400048612D
:100FE00000200949086080200649486108618000A6
:100FF000086140100861400048610020024905E096
:1010000008030020001001400C0C01400860802003
:10101000FE49486108618000086140100861400095
:101020004861FB484088401E0012FA490860802051
:10103000F64948610861800008614010086140007D
:101040004861F3488078401EC0B2F24908608020B1
:10105000EE494861086180000861F0BD30B5044682
:101060000D4629462046FFF75AFCFFF737FC4FF4A0
:101070008070E649086140004861E7480088E5491A
:1010800008608020E149486108618000086130BD46
:1010900030B503460C461546DD48808845F21051B0
:1010A000884250D1DA494889FFF7AEFB4FF480708F
:1010B000D6490861400048611812D649086080206E
:1010C000D2494861086180000861D1494989491CB9
:1010D00088B2FFF799FB4FF48070CC49086140005B
:1010E0004861D8B2CB4908608020C849486108618E
:1010F00080000861C6498889FFF786FB4FF480703D
:10110000C2490861400048612012C249086080203D
:10111000BE494861086180000861BD498989491C50
:1011200088B2FFF771FB4FF48070B8490861400046
:101130004861E0B2B74908608020B449486108615D
:1011400080000861C3E0B248808841F6631188429C
:101150007DD1AF48807920B9AD480088401EC01AC3
:1011600083B2AB494889FFF74FFB4FF48070A74922
:101170000861400048611812A64908608020A34910
:1011800048610861800008614010086140004861C2
:10119000D8B2A049086080209C494861086180005D
:1011A00008614010086140004861181299490860C0
:1011B00080209649486108618000086140100861FC
:1011C00040004861D8B29349086080208F49486147
:1011D0000861800008618E498889FFF715FB4FF48C
:1011E00080708A490861400048612012894908607E
:1011F00080208649486108618000086140100861CC
:1012000040004861E0B28349086080207F4948611E
:1012100008618000086140100861400048612012A8
:101220007C49086080207949486108618000086134
:101230004010086140004861E0B2764908608020B3
:101240007249486108618000086140E0FFE7704929
:101250004889FFF7D9FA4FF480706C490861400063
:10126000486118126B49086080206849486108612C
:10127000800008614010086140004861D8B26549AB
:101280000860802061494861086180000861604908
:101290008889FFF7B9FA4FF480705C490861400013
:1012A000486120125B490860802058494861086104
:1012B000800008614010086140004861E0B2554973
:1012C00008608020514948610861800008614FF43E
:1012D00080704E494861400048614D4800894D4941
:1012E0000860802049494861086180000861401019
:1012F00008614000486147480560802048610861F6
:101300008000086130BD2DE9F0410446BE20FFF7A2
:101310007BFA4FF480703D49086140004861052028
:101320003C490860802039494861086180000861B3
:101330004010086140004861204606F054FA054616
:101340004FF06632354B06F061FA074606F01EFA9A
:101350003049086080202D4948610861800008619B
:10136000401008614000486101202A49086080203F
:10137000264948610861800008614010086140000A
:101380004861FF20234908608020204948610861A6
:1013900080000861401008614000486100201D493C
:1013A0000860802019494861086180000861401088
:1013B00008614000486100201649086080201349F8
:1013C0004861086180000861BDE8F08110B50446FD
:1013D0000F488471002C50D1F0200D4908804FF443
:1013E000A07048800846808845F2105188421BD181
:1013F0004FF43050064908814FF4285048814FF48B
:101400002C5088814FF4F070088009E000100140F2
:10141000080300200C0C01402000002066660440F8
:101420004FF4487048801AE0FE48808841F6631106
:1014300088420DD12C20FB4908812B2048812A208D
:1014400088814FF4F07008804FF44870488006E0BF
:101450002C20F44908812A2048812B208881F148DA
:10146000808845F2103188424CD14FF4A070ED498C
:1014700008804FF4F070488044E04FF4A070E949D0
:101480000880F02048800846808845F21051884244
:1014900010D14FF43050E34908814FF4285048816F
:1014A0004FF42C5088814FF4487008804FF4F0704E
:1014B00048801AE0DB48808841F6631188420DD1EC
:1014C0002C20D84908812A2048812B2088814FF47C
:1014D000487008804FF4F070488006E02C20D14915
:1014E00008812A2048812B208881CE48808845F2B7
:1014F0001031884206D14FF4F070CA4908804FF489
:10150000A07048800020FFF7D8FB10BD2DE9F04106
:1015100004460D461646A019401E87B2E818401E24
:101520001FFA80F8BF48808841F6631188427DD158
:10153000BC488079012879D0BA480088801B001BFC
:1015400084B2E818401E83B2B6494889FFF75CF9B7
:101550004FF48070B4490861400048612012B349DB
:1015600008608020B049486108618000086140102F
:10157000086140004861E0B2AC4908608020AA4997
:1015800048610861800008614010086140004861BE
:10159000A019401E0012A54908608020A249486198
:1015A0000861800008614010086140004861A0198E
:1015B000401EC0B29D49086080209B494861086177
:1015C0008000086197498889FFF71EF94FF4807001
:1015D00095490861400048612812944908608020BC
:1015E000914948610861800008614010086140002D
:1015F0004861E8B28D49086080208B4948610861E4
:101600008000086140100861400048611812874955
:1016100008608020844948610861800008614010AA
:10162000086140004861D8B2804900E007E00860E6
:1016300080207D4948610861800008612BE179487C
:10164000808845F2105188427ED176494889FFF75B
:10165000DBF84FF480707449086140004861201243
:101660007249086080207049486108618000086103
:101670006C494989491C88B2FFF7C6F84FF480705D
:101680006949086140004861E0B26849086080200B
:101690006549486108618000086162494989891C7F
:1016A00088B2FFF7B1F84FF480705F4908614000DD
:1016B000486138125D49086080205B4948610861D3
:1016C0008000086157494989C91C88B2FFF79CF816
:1016D0004FF480705449086140004861F8B25349A2
:1016E00008608020504948610861800008614D49C8
:1016F0008889FFF789F84FF480704B4908614000F2
:1017000048612812494908608020474948610861BA
:101710008000086143498989491C88B2FFF774F841
:101720004FF480704049086140004861E8B23F4989
:10173000086080203C49486108618000086139499F
:101740008989891C88B200E028E0FFF75DF84FF432
:10175000807035490861400048614FEA28203349CC
:1017600008608020304948610861800008612D4987
:101770008989C91C88B2FFF747F84FF480702A495D
:1017800008614000486108F0FF0028490860802097
:10179000254948610861800008617CE02149488949
:1017A000FFF732F84FF480701F490861400048612C
:1017B00020121E49086080201B4948610861800092
:1017C00008614010086140004861E0B217490860B4
:1017D0008020154948610861800008614010086157
:1017E0004000486138121149086080200E49486164
:1017F0000861800008614010086140004861F8B24B
:101800000A49086080200849486108618000086131
:1018100004498889FEF7F8FF4FF480700249086197
:10182000400005E008030020001001400C0C0140BE
:1018300048612812FE4908608020FE49486108611D
:10184000800008614010086140004861E8B2F84932
:1018500008608020F74948610861800008614010F5
:101860000861400048614FEA2820F1490860802063
:10187000F04948610861800008614010086140003B
:10188000486108F0FF00EA4908608020E9494861A2
:10189000086180000861BDE8F08170B5044600264B
:1018A000E54805884088454300210846FFF737F89A
:1018B000FFF714F800BF0DE04FF48070DD490861B8
:1018C00040004861DA480460802048610861800077
:1018D0000861761CAE42EFD370BD08B50121192016
:1018E00003F08EFF0121D54803F09FFD4FF4F8600F
:1018F000ADF8000010208DF8030003208DF80200E1
:101900006946CC4803F0C0FC4FF4F861C94803F0C5
:1019100068FD4FF6FF70ADF800006946C4480C380A
:1019200003F0B2FC4FF6FF71C1480C3803F059FDCB
:10193000322003F05CFB01210020FEF7B3FF3220D0
:1019400003F055FBD320FEF75FFFFEF780FFBA4997
:101950008880FEF77CFFB8498880FEF778FFB6499B
:101960008880084680884FF6FF7101EA0020B2495E
:101970008880FEF76CFFB04989880843AE498880AB
:101980000846808849F2413188427DD00420FEF724
:101990003BFFFEF75CFFA8498880FEF758FFA64989
:1019A0008880FEF754FFA4498880084680884FF657
:1019B000FF7101EA0020A0498880FEF748FF9E4998
:1019C000898808439C4988800846808848F252519B
:1019D000884203D147F28970974988809648808869
:1019E00047F289718842D0D0D420FEF70DFFFEF770
:1019F0002EFF91498880FEF72AFF8F498880FEF7E5
:101A000026FF8D498880084680884FF6FF7101EADD
:101A1000002089498880FEF71AFF87498988084392
:101A2000854988800846808845F21031884262D016
:101A300055214FF47040FEF735FFAA214FF2010007
:101A4000FEF730FF52214FF20200FEF72BFF082174
:101A50004FF20300FEF726FF01214FF20400FEF7CC
:101A600021FF4FF44540FEF7CFFEFEF7F0FE72492E
:101A70008880084680884FF6FF7101EA00206E4991
:101A800088804CF2015000E035E0FEF7BDFEFEF725
:101A9000DEFE69498988084367498880052003F08C
:101AA000A6FA6548808845F21051884223D0A120CB
:101AB000FEF7AAFEFEF7CBFE5F498880FEF7C7FE61
:101AC0005D498880084680884FF6FF7101EA002052
:101AD00059498880FEF7BBFE574989880843564913
:101AE00088800846808845F26171884203D141F6BA
:101AF0006310514988805048818851A005F08CFAC4
:101B00004D48808849F2413188427CD1CF20FEF790
:101B10007BFE0020FEF786FEC120FEF783FE30200C
:101B2000FEF780FEED20FEF76FFE6420FEF77AFEE2
:101B30000320FEF777FE1220FEF774FE8120FEF7E9
:101B400071FEE820FEF760FE8520FEF76BFE102098
:101B5000FEF768FE7A20FEF765FECB20FEF754FE06
:101B60003920FEF75FFE2C20FEF75CFE0020FEF71A
:101B700059FE3420FEF756FE0220FEF753FEF720F2
:101B8000FEF742FE2020FEF74DFEEA20FEF73CFE67
:101B90000020FEF747FE0020FEF744FEC020FEF7BF
:101BA00033FE1B20FEF73EFEC120FEF72DFE012076
:101BB000FEF738FEC520FEF727FE3020FEF732FE86
:101BC0003020FEF72FFEC720FEF71EFEB720FEF7DF
:101BD00029FE3620FEF718FE4820FEF723FE3A20A5
:101BE000FEF712FE5520FEF71DFEB120FEF70CFE9B
:101BF0000020FEF717FE1A20FEF714FEB620FEF7AF
:101C000003FE0A2000E0ABE0FEF70CFEA220FEF788
:101C100009FEF220FEF7F8FD0020FEF703FE262065
:101C2000FEF7F2FD0120FEF7FDFDE02010E00000D0
:101C30000C0C01400010014008030020000230009D
:101C4000204C43442049443A25780D0A0000000006
:101C5000FEF7DAFD0F20FEF7E5FD2A20FEF7E2FD94
:101C60002820FEF7DFFD0820FEF7DCFD0E20FEF742
:101C7000D9FD0820FEF7D6FD5420FEF7D3FDA9209C
:101C8000FEF7D0FD4320FEF7CDFD0A20FEF7CAFD8A
:101C90000F20FEF7C7FD0020FEF7C4FD0020FEF771
:101CA000C1FD0020FEF7BEFD0020FEF7BBFDE120D8
:101CB000FEF7AAFD0020FEF7B5FD1520FEF7B2FDE8
:101CC0001720FEF7AFFD0720FEF7ACFD1120FEF751
:101CD000A9FD0620FEF7A6FD2B20FEF7A3FD56204A
:101CE000FEF7A0FD3C20FEF79DFD0520FEF79AFDC6
:101CF0001020FEF797FD0F20FEF794FD3F20FEF722
:101D000091FD3F20FEF78EFD0F20FEF78BFD2B206F
:101D1000FEF77AFD0020FEF785FD0020FEF782FD2C
:101D20000120FEF77FFD3F20FEF77CFD2A20FEF715
:101D30006BFD0020FEF776FD0020FEF773FD00200E
:101D4000FEF770FDEF20FEF76DFD1120FEF75CFD44
:101D5000782003F04CF92920FEF756FD02F05FBA17
:101D6000FE48808847F2897188427CD11120FEF7B5
:101D70004BFD782003F03BF93620FEF745FD0020AF
:101D8000FEF750FD3A20FEF73FFD0520FEF74AFD25
:101D9000B220FEF739FD0C20FEF744FD0C20FEF7C3
:101DA00041FD0020FEF73EFD3320FEF73BFD3320D2
:101DB000FEF738FDB720FEF727FD3520FEF732FD90
:101DC000BB20FEF721FD3220FEF72CFDC020FEF7E0
:101DD0001BFD0C20FEF726FDC220FEF715FD01209D
:101DE000FEF720FDC320FEF70FFD1020FEF71AFDC1
:101DF000C420FEF709FD2020FEF714FDC620FEF7E3
:101E000003FD0F20FEF70EFDD020FEF7FDFCA42001
:101E1000FEF708FDA120FEF705FDE020FEF7F4FC2B
:101E2000D020FEF7FFFC0020FEF7FCFC0220FEF7AE
:101E3000F9FC0720FEF7F6FC0A20FEF7F3FC282049
:101E4000FEF7F0FC3220FEF7EDFC4420FEF7EAFC42
:101E50004220FEF7E7FC0620FEF7E4FC0E20FEF72A
:101E6000E1FC122000E056E0FEF7DCFC1420FEF757
:101E7000D9FC1720FEF7D6FCE120FEF7C5FCD020E8
:101E8000FEF7D0FC0020FEF7CDFC0220FEF7CAFCD6
:101E90000720FEF7C7FC0A20FEF7C4FC2820FEF747
:101EA000C1FC3120FEF7BEFC5420FEF7BBFC4720EE
:101EB000FEF7B8FC0E20FEF7B5FC1C20FEF7B2FCC6
:101EC0001720FEF7AFFC1B20FEF7ACFC1E20FEF730
:101ED000A9FC2A20FEF798FC0020FEF7A3FC0020B6
:101EE000FEF7A0FC0020FEF79DFCEF20FEF79AFC19
:101EF0002B20FEF789FC0020FEF794FC0020FEF763
:101F000091FC0120FEF78EFC3F20FEF78BFC292080
:101F1000FEF77AFC22E79148808845F2103188422A
:101F200040F07C87ED20FEF76FFC0120FEF77AFC85
:101F3000FE20FEF777FCEE20FEF766FCDE20FEF7C3
:101F400071FC2120FEF76EFCF120FEF75DFC012004
:101F5000FEF768FCDF20FEF757FC1020FEF762FC5E
:101F6000C420FEF751FC8F20FEF75CFCC620FEF774
:101F70004BFC0020FEF756FCE220FEF753FCE2206B
:101F8000FEF750FCE220FEF74DFCBF20FEF73CFCC4
:101F9000AA20FEF747FCB020FEF736FC0D20FEF726
:101FA00041FC0020FEF73EFC0D20FEF73BFC00202C
:101FB000FEF738FC1120FEF735FC0020FEF732FC5E
:101FC0001920FEF72FFC0020FEF72CFC2120FEF745
:101FD00029FC0020FEF726FC2D20FEF723FC002024
:101FE000FEF720FC3D20FEF71DFC0020FEF71AFC4A
:101FF0005D20FEF717FC0020FEF714FC5D20FEF7C5
:1020000011FC0020FEF70EFCB120FEF7FDFB802046
:10201000FEF708FC0020FEF705FC8B20FEF702FC13
:102020000020FEF7FFFB9620FEF7FCFB0020FEF7EA
:10203000F9FBB220FEF7E8FB0020FEF7F3FB0020DF
:10204000FEF7F0FB0220FEF7EDFB0020FEF7EAFBB7
:102050000320FEF7E7FB0020FEF7E4FBB320FEF7CA
:10206000D3FB0020FEF7DEFB0020FEF7DBFB0020A9
:10207000FEF7D8FB0020FEF7D5FB0020FEF7D2FBD1
:102080000020FEF7CFFB0020FEF7CCFB0020FEF780
:10209000C9FB0020FEF7C6FB0020FEF7C3FB0020B3
:1020A000FEF7C0FB0020FEF7BDFB0020FEF7BAFBE9
:1020B0000020FEF7B7FB0020FEF7B4FB0020FEF780
:1020C000B1FB0020FEF7AEFB0020FEF7ABFB0020CB
:1020D000FEF7A8FB0020FEF7A5FB0020FEF7A2FB01
:1020E0000020FEF79FFB0020FEF79CFB0020FEF780
:1020F00099FBB420FEF788FB8B20FEF793FB0020B2
:10210000FEF790FB9620FEF78DFB0020FEF78AFB82
:10211000A120FEF787FB0020FEF784FBB520FEF729
:1021200073FB0220FEF77EFB0020FEF77BFB032003
:10213000FEF778FB0020FEF775FB0420FEF772FB2C
:102140000020FEF76FFBB620FEF75EFB0020FEF7D7
:1021500069FB0020FEF766FBB72001E008030020C2
:10216000FEF752FB0020FEF75DFB0020FEF75AFB56
:102170003F20FEF757FB0020FEF754FB5E20FEF7E2
:1021800051FB0020FEF74EFB6420FEF74BFB0020C6
:10219000FEF748FB8C20FEF745FB0020FEF742FBD4
:1021A000AC20FEF73FFB0020FEF73CFBDC20FEF7F7
:1021B00039FB0020FEF736FB7020FEF733FB0020D2
:1021C000FEF730FB9020FEF72DFB0020FEF72AFBE8
:1021D000EB20FEF727FB0020FEF724FBDC20FEF7B8
:1021E00021FB0020FEF71EFBB820FEF70DFB0020B0
:1021F000FEF718FB0020FEF715FB0020FEF712FB90
:102200000020FEF70FFB0020FEF70CFB0020FEF77E
:1022100009FB0020FEF706FB0020FEF703FBBA20B7
:10222000FEF7F2FA2420FEF7FDFA0020FEF7FAFA94
:102230000020FEF7F7FA0020FEF7F4FAC120FEF7BF
:10224000E3FA2020FEF7EEFA0020FEF7EBFA542026
:10225000FEF7E8FA0020FEF7E5FAFF20FEF7E2FAC3
:102260000020FEF7DFFAC220FEF7CEFA0A20FEF7C2
:10227000D9FA0020FEF7D6FA0420FEF7D3FA0020A0
:10228000FEF7D0FAC320FEF7BFFA3C20FEF7CAFAE9
:102290000020FEF7C7FA3A20FEF7C4FA0020FEF746
:1022A000C1FA3920FEF7BEFA0020FEF7BBFA37204C
:1022B000FEF7B8FA0020FEF7B5FA3C20FEF7B2FAB6
:1022C0000020FEF7AFFA3620FEF7ACFA0020FEF74A
:1022D000A9FA3220FEF7A6FA0020FEF7A3FA2F2073
:1022E000FEF7A0FA0020FEF79DFA2C20FEF79AFADE
:1022F0000020FEF797FA2920FEF794FA0020FEF757
:1023000091FA2620FEF78EFA0020FEF78BFA2420A1
:10231000FEF788FA0020FEF785FA2420FEF782FAFD
:102320000020FEF77FFA2320FEF77CFA0020FEF75C
:1023300079FA3C20FEF776FA0020FEF773FA362091
:10234000FEF770FA0020FEF76DFA3220FEF76AFA07
:102350000020FEF767FA2F20FEF764FA0020FEF750
:1023600061FA2C20FEF75EFA0020FEF75BFA2920C6
:10237000FEF758FA0020FEF755FA2620FEF752FA2B
:102380000020FEF74FFA2420FEF74CFA0020FEF75B
:1023900049FA2420FEF746FA0020FEF743FA2320EC
:1023A000FEF740FA0020FEF73DFAC420FEF72CFAB3
:1023B0006220FEF737FA0020FEF734FA0520FEF718
:1023C00031FA0020FEF72EFA8420FEF72BFA0020C7
:1023D000FEF728FAF020FEF725FA0020FEF722FA91
:1023E0001820FEF71FFA0020FEF71CFAA420FEF7C3
:1023F00019FA0020FEF716FA1820FEF713FA00204B
:10240000FEF710FA5020FEF70DFA0020FEF70AFA48
:102410000C20FEF707FA0020FEF704FA1720FEF75B
:1024200001FA0020FEF7FEF99520FEF7FBF90020E7
:10243000FEF7F8F9F320FEF7F5F90020FEF7F2F9C0
:10244000E620FEF7EFF90020FEF7ECF9C520FEF7D5
:10245000DBF93220FEF7E6F90020FEF7E3F944202D
:10246000FEF7E0F90020FEF7DDF96520FEF7DAF966
:102470000020FEF7D7F97620FEF7D4F90020FEF70A
:10248000D1F98820FEF7CEF90020FEF7CBF9C6205F
:10249000FEF7BAF92020FEF7C5F90020FEF7C2F9D1
:1024A0001720FEF7BFF90020FEF7BCF90120FEF768
:1024B000B9F90020FEF7B6F9C720FEF7A5F900200C
:1024C000FEF7B0F90020FEF7ADF90020FEF7AAF9FB
:1024D0000020FEF7A7F9C820FEF796F90020FEF7C6
:1024E000A1F90020FEF79EF90020FEF79BF90020DD
:1024F000FEF798F9C920FEF787F90020FEF792F958
:102500000020FEF78FF90020FEF78CF90020FEF77F
:1025100089F90020FEF786F90020FEF783F90020F4
:10252000FEF780F90020FEF77DF90020FEF77AF92A
:102530000020FEF777F90020FEF774F90020FEF77F
:1025400071F90020FEF76EF90020FEF76BF900200C
:10255000FEF768F90020FEF765F9E020FEF754F970
:102560001620FEF75FF90020FEF75CF91C20FEF74D
:1025700059F90020FEF756F92120FEF753F9002003
:10258000FEF750F93620FEF74DF90020FEF74AF924
:102590004620FEF747F90020FEF744F95220FEF7E7
:1025A00041F90020FEF73EF96420FEF73BF90020D8
:1025B000FEF738F97A20FEF735F90020FEF732F9F8
:1025C0008B20FEF72FF90020FEF72CF99920FEF75B
:1025D00029F90020FEF726F9A820FEF723F90020AC
:1025E000FEF720F9B920FEF71DF90020FEF71AF9D1
:1025F000C420FEF717F90020FEF714F9CA20FEF7F1
:1026000011F90020FEF70EF9D220FEF70BF9002099
:10261000FEF708F9D920FEF705F90020FEF702F9C8
:10262000E020FEF7FFF80020FEF7FCF8F320FEF7AD
:10263000F9F80020FEF7F6F8E120FEF7E5F816209D
:10264000FEF7F0F80020FEF7EDF81C20FEF7EAF8A0
:102650000020FEF7E7F82220FEF7E4F80020FEF75E
:10266000E1F83620FEF7DEF80020FEF7DBF8452023
:10267000FEF7D8F80020FEF7D5F85220FEF7D2F882
:102680000020FEF7CFF86420FEF7CCF80020FEF71C
:10269000C9F87A20FEF7C6F80020FEF7C3F88B20B1
:1026A000FEF7C0F80020FEF7BDF89920FEF7BAF853
:1026B0000020FEF7B7F8A820FEF7B4F80020FEF7D8
:1026C000B1F8B920FEF7AEF80020FEF7ABF8C42051
:1026D000FEF7A8F80020FEF7A5F8CA20FEF7A2F83A
:1026E0000020FEF79FF8D220FEF79CF80020FEF7AE
:1026F00099F8D820FEF796F80020FEF793F8E0202E
:10270000FEF790F80020FEF78DF8F320FEF78AF828
:102710000020FEF787F8E220FEF776F80520FEF7A6
:1027200081F80020FEF77EF80B20FEF77BF80020F2
:10273000FEF778F81B20FEF775F80020FEF772F818
:102740003420FEF76FF80020FEF76CF84420FEF707
:1027500069F80020FEF766F84F20FEF763F80020C6
:10276000FEF760F86120FEF75DF80020FEF75AF8EA
:102770007920FEF757F80020FEF754F88820FEF77E
:1027800051F80020FEF74EF89720FEF74BF8002096
:10279000FEF748F8A620FEF745F80020FEF742F8BD
:1027A000B720FEF73FF80020FEF73CF8C220FEF706
:1027B00039F80020FEF736F8C720FEF733F800207E
:1027C000FEF730F8D120FEF72DF80020FEF72AF8AA
:1027D000D620FEF727F80020FEF724F8DD20FEF7CC
:1027E00021F80020FEF71EF8F320FEF71BF800206A
:1027F000FEF718F8E320FEF707F80520FEF712F8B9
:102800000020FEF70FF80A20FEF70CF80020FEF774
:1028100009F81C20FEF706F80020FEF703F8332025
:10282000FEF700F80020FDF7FDFF4420FDF7FAFF5A
:102830000020FDF7F7FF5020FDF7F4FF0020FDF723
:10284000F1FF6220FDF7EEFF0020FDF7EBFF78209F
:10285000FDF7E8FF0020FDF7E5FF8820FDF7E2FF28
:102860000020FDF7DFFF9720FDF7DCFF0020FDF7DC
:10287000D9FFA620FDF7D6FF0020FDF7D3FFB72034
:10288000FDF7D0FF0020FDF7CDFFC220FDF7CAFF06
:102890000020FDF7C7FFC720FDF7C4FF0020FDF7AC
:1028A000C1FFD120FDF7BEFF0020FDF7BBFFD52003
:1028B000FDF7B8FF0020FDF7B5FFDD20FDF7B2FF03
:1028C0000020FDF7AFFFF320FDF7ACFF0020FDF780
:1028D000A9FFE420FDF798FF0120FDF7A3FF0020EA
:1028E000FDF7A0FF0120FDF79DFF0020FDF79AFFF7
:1028F0000220FDF797FF0020FDF794FF2A20FDF747
:1029000091FF0020FDF78EFF3C20FDF78BFF00209C
:10291000FDF788FF4B20FDF785FF0020FDF782FFC4
:102920005D20FDF77FFF0020FDF77CFF7420FDF7A1
:1029300079FF0020FDF776FF8420FDF773FF00206C
:10294000FDF770FF9320FDF76DFF0020FDF76AFF94
:10295000A220FDF767FF0020FDF764FFB320FDF71D
:1029600061FF0020FDF75EFFBE20FDF75BFF00204A
:10297000FDF758FFC420FDF755FF0020FDF752FF7B
:10298000CD20FDF74FFF0020FDF74CFFD320FDF7D2
:1029900049FF0020FDF746FFDD20FDF743FF002043
:1029A000FDF740FFF320FDF73DFF0020FDF73AFF64
:1029B000E520FDF729FF0020FDF734FF0020FDF79B
:1029C00031FF0020FDF72EFF0020FDF72BFF022036
:1029D000FDF728FF0020FDF725FF2920FDF722FF46
:1029E0000020FDF71FFF3C20FDF71CFF0020FDF736
:1029F00019FF4B20FDF716FF0020FDF713FF5D20A8
:102A0000FDF710FF0020FDF70DFF7420FDF70AFF12
:102A10000020FDF707FF8420FDF704FF0020FDF7ED
:102A200001FF9320FDF7FEFE0020FDF7FBFEA22034
:102A3000FDF7F8FE0020FDF7F5FEB320FDF7F2FEEE
:102A40000020FDF7EFFEBE20FDF7ECFE0020FDF7B5
:102A5000E9FEC420FDF7E6FE0020FDF7E3FECD20F1
:102A6000FDF7E0FE0020FDF7DDFED320FDF7DAFEE6
:102A70000020FDF7D7FEDC20FDF7D4FE0020FDF797
:102A8000D1FEF320FDF7CEFE0020FDF7CBFEE620C1
:102A9000FDF7BAFE1120FDF7C5FE0020FDF7C2FECE
:102AA0003420FDF7BFFE0020FDF7BCFE5620FDF7E9
:102AB000B9FE0020FDF7B6FE7620FDF7B3FE00203C
:102AC000FDF7B0FE7720FDF7ADFE0020FDF7AAFE72
:102AD0006620FDF7A7FE0020FDF7A4FE8820FDF785
:102AE000A1FE0020FDF79EFE9920FDF79BFE002031
:102AF000FDF798FEBB20FDF795FE0020FDF792FE46
:102B00009920FDF78FFE0020FDF78CFE6620FDF773
:102B100089FE0020FDF786FE5520FDF783FE00208C
:102B2000FDF780FE5520FDF77DFE0020FDF77AFEC3
:102B30004520FDF777FE0020FDF774FE4320FDF7EA
:102B400071FE0020FDF76EFE4420FDF76BFE0020B5
:102B5000FDF768FEE720FDF757FE3220FDF762FE25
:102B60000020FDF75FFE5520FDF75CFE0020FDF71D
:102B700059FE7620FDF756FE0020FDF753FE662035
:102B8000FDF750FE0020FDF74DFE6720FDF74AFEE1
:102B90000020FDF747FE6720FDF744FE0020FDF70B
:102BA00041FE8720FDF73EFE0020FDF73BFE992009
:102BB000FDF738FE0020FDF735FEBB20FDF732FEA5
:102BC0000020FDF72FFE9920FDF72CFE0020FDF7D9
:102BD00029FE7720FDF726FE0020FDF723FE442086
:102BE000FDF720FE0020FDF71DFE5620FDF71AFE22
:102BF0000020FDF717FE2320FDF714FE0020FDF74F
:102C000011FE3320FDF70EFE0020FDF70BFE4520E0
:102C1000FDF708FE0020FDF705FEE820FDF7F4FDB6
:102C20000020FDF7FFFD0020FDF7FCFD9920FDF7DA
:102C3000F9FD0020FDF7F6FD8720FDF7F3FD0020EC
:102C4000FDF7F0FD8820FDF7EDFD0020FDF7EAFD22
:102C50007720FDF7E7FD0020FDF7E4FD6620FDF796
:102C6000E1FD0020FDF7DEFD8820FDF7DBFD002003
:102C7000FDF7D8FDAA20FDF7D5FD0020FDF7D2FD18
:102C8000BB20FDF7CFFD0020FDF7CCFD9920FDF71F
:102C9000C9FD0020FDF7C6FD6620FDF7C3FD00203D
:102CA000FDF7C0FD5520FDF7BDFD0020FDF7BAFD85
:102CB0005520FDF7B7FD0020FDF7B4FD4420FDF7DA
:102CC000B1FD0020FDF7AEFD4420FDF7ABFD002077
:102CD000FDF7A8FD5520FDF7A5FD0020FDF7A2FD9D
:102CE000E920FDF791FDAA20FDF79CFD0020FDF7EE
:102CF00099FD0020FDF796FD0020FDF793FD0020D3
:102D0000FDF782FDAA20FDF78DFDCF20FDF77CFDAC
:102D10000020FDF787FD0020FDF784FD0020FDF772
:102D200081FD0020FDF77EFD0020FDF77BFD0020EA
:102D3000FDF778FD0020FDF775FD0020FDF772FD21
:102D40000020FDF76FFD0020FDF76CFD0020FDF772
:102D500069FD0020FDF766FD0020FDF763FD002002
:102D6000FDF760FD0020FDF75DFD0020FDF75AFD39
:102D70000020FDF757FDF020FDF746FD0020FDF790
:102D800051FD5020FDF74EFD0020FDF74BFD0020CA
:102D9000FDF748FD0020FDF745FDF320FDF734FD6C
:102DA0000020FDF73FFDF920FDF72EFD0620FDF781
:102DB00039FD1020FDF736FD2920FDF733FD0020F9
:102DC000FDF730FD3A20FDF71FFD5520FDF72AFDE8
:102DD0001120FDF719FD642002F009F92920FDF703
:102DE00013FD3520FDF710FD0020FDF71BFD5120E0
:102DF000FDF70AFDFF20FDF715FD5320FDF704FD4B
:102E00002C20FDF70FFD5520FDF7FEFC8220FDF77D
:102E100009FD2C20FDF7F8FC01F001BAFE4880887E
:102E200045F2105188427DD155214FF47040FDF795
:102E300039FDAA214FF20100FDF734FD52214FF276
:102E40000200FDF72FFD08214FF20300FDF72AFDD8
:102E500001214FF20400FDF725FD0D214FF4304014
:102E6000FDF720FD0D214BF20100FDF71BFD0D21AB
:102E70004BF20200FDF716FD34214FF43640FDF70A
:102E800011FD34214BF20160FDF70CFD34214BF2B2
:102E90000260FDF707FD0D214FF43140FDF702FD03
:102EA0000D214BF20110FDF7FDFC0D214BF202103C
:102EB000FDF7F8FC34214FF43740FDF7F3FC3421E3
:102EC0004BF20170FDF7EEFC34214BF20270FDF77E
:102ED000E9FC00214FF43240FDF7E4FC00214BF205
:102EE0000120FDF7DFFC00214BF20220FDF7DAFCA8
:102EF00024214FF43840FDF7D5FC24214BF6010086
:102F0000FDF7D0FC24214BF60200FDF7CBFC01219C
:102F10004FF43F40FDF7C6FC0F214FF43340FDF75F
:102F2000C1FC00E0FDE30F214BF20130FDF7BAFCDC
:102F30000F214BF20230FDF7B5FC34214FF439403C
:102F4000FDF7B0FC34214BF60110FDF7ABFC34214A
:102F50004BF60210FDF7A6FC08214FF43540FDF7B3
:102F6000A1FC08214BF20150FDF79CFC08214BF21B
:102F70000250FDF797FC03214FF44240FDF792FC0D
:102F800024214FF43A40FDF78DFC24214BF601201B
:102F9000FDF788FC24214BF60220FDF783FC00217D
:102FA0004FF43C40FDF77EFC78214BF60140FDF7E5
:102FB00079FC00214BF60240FDF774FC00214FF430
:102FC0003D40FDF76FFC78214BF60150FDF76AFCA0
:102FD00000214BF60250FDF765FC00214FF43E4006
:102FE000FDF760FC64214BF60160FDF75BFC0021FE
:102FF0004FF45140FDF756FC33214DF20110FDF71F
:1030000051FC00214DF20210FDF74CFC34214DF231
:103010000310FDF747FC00214DF20410FDF742FCC0
:103020003A214DF20510FDF73DFC00214DF206104E
:10303000FDF738FC4A214DF20710FDF733FC002163
:103040004DF20810FDF72EFC5C214DF20910FDF742
:1030500029FC00214DF20A10FDF724FC81214DF2DC
:103060000B10FDF71FFC00214DF20C10FDF71AFCB0
:10307000A6214DF20D10FDF715FC00214DF20E10AA
:10308000FDF710FCE5214DF20F10FDF70BFC0121BF
:103090004DF21010FDF706FC13214DF21110FDF753
:1030A00001FC01214DF21210FDF7FCFB54214DF201
:1030B0001310FDF7F7FB01214DF21410FDF7F2FBA1
:1030C00082214DF21510FDF7EDFB01214DF2161096
:1030D000FDF7E8FBCA214DF21710FDF7E3FB0221D3
:1030E0004DF21810FDF7DEFB00214DF21910FDF72F
:1030F000D9FB02214DF21A10FDF7D4FB01214DF24C
:103100001B10FDF7CFFB02214DF21C10FDF7CAFB8F
:1031100034214DF21D10FDF7C5FB02214DF21E10AA
:10312000FDF7C0FB67214DF21F10FDF7BBFB02212D
:103130004DF22010FDF7B6FB84214DF22110FDF772
:10314000B1FB02214DF22210FDF7ACFBA4214DF2A0
:103150002310FDF7A7FB02214DF22410FDF7A2FB7F
:10316000B7214DF22510FDF79DFB02214DF22610EF
:10317000FDF798FBCF214DF22710FDF793FB0221BD
:103180004DF22810FDF78EFBDE214DF22910FDF7E0
:1031900089FB02214DF22A10FDF784FBF2214DF24A
:1031A0002B10FDF77FFB02214DF22C10FDF77AFB6F
:1031B000FE214DF22D10FDF775FB03214DF22E106F
:1031C000FDF770FB10214DF22F10FDF76BFB032173
:1031D0004DF23010FDF766FB33214DF23110FDF753
:1031E00061FB03214DF23210FDF75CFB6D214DF2C6
:1031F0003310FDF757FB00214FF45240FDF752FB0F
:1032000033214DF20120FDF74DFB00214DF202204C
:10321000FDF748FB342101E0080300204DF20320B4
:10322000FDF740FB00214DF20420FDF73BFB3A2166
:103230004DF20520FDF736FB00214DF20620FDF78B
:1032400031FB4A214DF20720FDF72CFB00214DF206
:103250000820FDF727FB5C214DF20920FDF722FB3A
:1032600000214DF20A20FDF71DFB81214DF20B20BC
:10327000FDF718FB00214DF20C20FDF713FBA621F2
:103280004DF20D20FDF70EFB00214DF20E20FDF753
:1032900009FBE5214DF20F20FDF704FB01214DF262
:1032A0001020FDF7FFFA13214DF21120FDF7FAFA75
:1032B00001214DF21220FDF7F5FA54214DF21320B1
:1032C000FDF7F0FA01214DF21420FDF7EBFA82210F
:1032D0004DF21520FDF7E6FA01214DF21620FDF71B
:1032E000E1FACA214DF21720FDF7DCFA02214DF276
:1032F0001820FDF7D7FA00214DF21920FDF7D2FA78
:1033000002214DF21A20FDF7CDFA01214DF21B20CA
:10331000FDF7C8FA02214DF21C20FDF7C3FA342153
:103320004DF21D20FDF7BEFA02214DF21E20FDF7E1
:10333000B9FA67214DF21F20FDF7B4FA02214DF2D0
:103340002020FDF7AFFA84214DF22120FDF7AAFAE3
:1033500002214DF22220FDF7A5FAA4214DF22320EF
:10336000FDF7A0FA02214DF22420FDF79BFAB721C8
:103370004DF22520FDF796FA02214DF22620FDF7A9
:1033800091FACF214DF22720FDF78CFA02214DF260
:103390002820FDF787FADE214DF22920FDF782FA79
:1033A00002214DF22A20FDF77DFAF2214DF22B2069
:1033B000FDF778FA02214DF22C20FDF773FAFE2179
:1033C0004DF22D20FDF76EFA03214DF22E20FDF770
:1033D00069FA10214DF22F20FDF764FA03214DF216
:1033E0003020FDF75FFA33214DF23120FDF75AFA14
:1033F00003214DF23220FDF755FA6D214DF23320B5
:10340000FDF750FA00214FF45340FDF74BFA3321FA
:103410004DF20130FDF746FA00214DF20230FDF782
:1034200041FA34214DF20330FDF73CFA00214DF210
:103430000430FDF737FA3A214DF20530FDF732FA44
:1034400000214DF20630FDF72DFA4A214DF20730EA
:10345000FDF728FA00214DF20830FDF723FA5C2130
:103460004DF20930FDF71EFA00214DF20A30FDF74A
:1034700019FA81214DF20B30FDF714FA00214DF2BB
:103480000C30FDF70FFAA6214DF20D30FDF70AFAC8
:1034900000214DF20E30FDF705FAE5214DF20F3017
:1034A000FDF700FA01214DF21030FDF7FBF9132171
:1034B0004DF21130FDF7F6F901214DF21230FDF712
:1034C000F1F954214DF21330FDF7ECF901214DF2E1
:1034D0001430FDF7E7F982214DF21530FDF7E2F9DE
:1034E00001214DF21630FDF7DDF9CA214DF21730FA
:1034F000FDF7D8F902214DF21830FDF7D3F900217C
:103500004DF21930FDF7CEF902214DF21A30FDF7D8
:10351000C9F901214DF21B30FDF7C4F902214DF22A
:103520001C30FDF7BFF934214DF21D30FDF7BAF91B
:1035300002214DF21E30FDF7B5F967214DF21F3023
:10354000FDF7B0F902214DF22030FDF7ABF98421EF
:103550004DF22130FDF7A6F902214DF22230FDF7A0
:10356000A1F9A4214DF22330FDF79CF902214DF27F
:103570002430FDF797F9B7214DF22530FDF792F988
:1035800002214DF22630FDF78DF9CF214DF2273083
:10359000FDF788F902214DF22830FDF783F9DE218D
:1035A0004DF22930FDF77EF902214DF22A30FDF768
:1035B00079F9F2214DF22B30FDF774F902214DF229
:1035C0002C30FDF76FF9FE214DF22D30FDF76AF931
:1035D00003214DF22E30FDF765F910214DF22F3009
:1035E000FDF760F903214DF23030FDF75BF933212F
:1035F0004DF23130FDF756F903214DF23230FDF72F
:1036000051F96D214DF23330FDF74CF900214FF4A3
:103610005440FDF747F933214DF20140FDF742F9DF
:1036200000214DF20240FDF73DF934214DF20340F7
:10363000FDF738F900214DF20440FDF733F93A2146
:103640004DF20540FDF72EF900214DF20640FDF741
:1036500029F94A214DF20740FDF724F900214DF2E6
:103660000840FDF71FF95C214DF20940FDF71AF9FA
:1036700000214DF20A40FDF715F981214DF20B4072
:10368000FDF710F900214DF20C40FDF70BF9A621D2
:103690004DF20D40FDF706F900214DF20E40FDF709
:1036A00001F9E5214DF20F40FDF7FCF801214DF243
:1036B0001040FDF7F7F813214DF21140FDF7F2F835
:1036C00001214DF21240FDF7EDF854214DF2134067
:1036D000FDF7E8F801214DF21440FDF7E3F88221EF
:1036E0004DF21540FDF7DEF801214DF21640FDF7D1
:1036F000D9F8CA214DF21740FDF7D4F802214DF256
:103700001840FDF7CFF800214DF21940FDF7CAF837
:1037100002214DF21A40FDF7C5F801214DF21B4080
:1037200000E005E3FDF7BEF802214DF21C40FDF775
:10373000B9F834214DF21D40FDF7B4F802214DF2E5
:103740001E40FDF7AFF867214DF21F40FDF7AAF8C4
:1037500002214DF22040FDF7A5F884214DF22140D1
:10376000FDF7A0F802214DF22240FDF79BF8A421BD
:103770004DF22340FDF796F802214DF22440FDF76B
:1037800091F8B7214DF22540FDF78CF802214DF25A
:103790002640FDF787F8CF214DF22740FDF782F84C
:1037A00002214DF22840FDF77DF8DE214DF229403F
:1037B000FDF778F802214DF22A40FDF773F8F22167
:1037C0004DF22B40FDF76EF802214DF22C40FDF733
:1037D00069F8FE214DF22D40FDF764F803214DF20A
:1037E0002E40FDF75FF810214DF22F40FDF75AF8FB
:1037F00003214DF23040FDF755F833214DF23140B1
:10380000FDF750F803214DF23240FDF74BF86D21E2
:103810004DF23340FDF746F800214FF45540FDF7D7
:1038200041F833214DF20150FDF73CF800214DF2F3
:103830000250FDF737F834214DF20350FDF732F80E
:1038400000214DF20450FDF72DF83A214DF20550BC
:10385000FDF728F800214DF20650FDF723F84A2124
:103860004DF20750FDF71EF800214DF20850FDF70C
:1038700019F85C214DF20950FDF714F800214DF2C2
:103880000A50FDF70FF881214DF20B50FDF70AF8B1
:1038900000214DF20C50FDF705F8A6214DF20D5018
:1038A000FDF700F800214DF20E50FCF7FBFFE5217B
:1038B0004DF20F50FCF7F6FF01214DF21050FCF7CE
:1038C000F1FF13214DF21150FCF7ECFF01214DF2F5
:1038D0001250FCF7E7FF54214DF21350FCF7E2FFC2
:1038E00001214DF21450FCF7DDFF82214DF21550FD
:1038F000FCF7D8FF01214DF21650FCF7D3FFCA2187
:103900004DF21750FCF7CEFF02214DF21850FCF794
:10391000C9FF00214DF21950FCF7C4FF02214DF2FE
:103920001A50FCF7BFFF01214DF21B50FCF7BAFF04
:1039300002214DF21C50FCF7B5FF34214DF21D5011
:10394000FCF7B0FF02214DF21E50FCF7ABFF6721E0
:103950004DF21F50FCF7A6FF02214DF22050FCF75C
:10396000A1FF84214DF22150FCF79CFF02214DF272
:103970002250FCF797FFA4214DF22350FCF792FF51
:1039800002214DF22450FCF78DFFB7214DF2255056
:10399000FCF788FF02214DF22650FCF783FFCF2170
:1039A0004DF22750FCF77EFF02214DF22850FCF724
:1039B00079FFDE214DF22950FCF774FF02214DF210
:1039C0002A50FCF76FFFF2214DF22B50FCF76AFFF3
:1039D00002214DF22C50FCF765FFFE214DF22D50D7
:1039E000FCF760FF03214DF22E50FCF75BFF102126
:1039F0004DF22F50FCF756FF03214DF23050FCF7EB
:103A000051FF33214DF23150FCF74CFF03214DF2B1
:103A10003250FCF747FF6D214DF23350FCF742FF67
:103A200000214FF45640FCF73DFF33214DF2016079
:103A3000FCF738FF00214DF20260FCF733FF342120
:103A40004DF20360FCF72EFF00214DF20460FCF7FD
:103A500029FF3A214DF20560FCF724FF00214DF2C9
:103A60000660FCF71FFF4A214DF20760FCF71AFFC2
:103A700000214DF20860FCF715FF5C214DF2096052
:103A8000FCF710FF00214DF20A60FCF70BFF8121CB
:103A90004DF20B60FCF706FF00214DF20C60FCF7C5
:103AA00001FFA6214DF20D60FCF7FCFE00214DF256
:103AB0000E60FCF7F7FEE5214DF20F60FCF7F2FE19
:103AC00001214DF21060FCF7EDFE13214DF2116063
:103AD000FCF7E8FE01214DF21260FCF7E3FE5421F1
:103AE0004DF21360FCF7DEFE01214DF21460FCF78D
:103AF000D9FE82214DF21560FCF7D4FE01214DF272
:103B00001660FCF7CFFECA214DF21760FCF7CAFE23
:103B100002214DF21860FCF7C5FE00214DF219603C
:103B2000FCF7C0FE02214DF21A60FCF7BBFE01213A
:103B30004DF21B60FCF7B6FE02214DF21C60FCF753
:103B4000B1FE34214DF21D60FCF7ACFE02214DF2B6
:103B50001E60FCF7A7FE67214DF21F60FCF7A2FE76
:103B600002214DF22060FCF79DFE84214DF2216080
:103B7000FCF798FE02214DF22260FCF793FEA4218F
:103B80004DF22360FCF78EFE02214DF22460FCF71B
:103B900089FEB7214DF22560FCF784FE02214DF22B
:103BA0002660FCF77FFECF214DF22760FCF77AFEFE
:103BB00002214DF22860FCF775FEDE214DF22960EE
:103BC000FCF770FE02214DF22A60FCF76BFEF22139
:103BD0004DF22B60FCF766FE02214DF22C60FCF7E3
:103BE00061FEFE214DF22D60FCF75CFE03214DF2DB
:103BF0002E60FCF757FE10214DF22F60FCF752FEAD
:103C000003214DF23060FCF74DFE33214DF231605F
:103C1000FCF748FE03214DF23260FCF743FE6D21B4
:103C20004DF23360FCF73EFE55214FF47040FCF737
:103C300039FEAA214FF20100FCF734FE52214FF267
:103C40000200FCF72FFE08214FF20300FCF72AFECA
:103C500000214FF20400FCF725FECC214FF4314047
:103C6000FCF720FE00214BF20110FCF71BFE0521A2
:103C70004FF43640FCF716FE70214FF43740FCF746
:103C800011FE70214BF20170FCF70CFE01214FF484
:103C90003840FCF707FE03214BF60100FCF702FE5B
:103CA00003214BF60200FCF7FDFD03214BF6030058
:103CB000FCF7F8FD02214FF43C40FCF7F3FD002136
:103CC0004BF60140FCF7EEFD00214BF60240FCF7FD
:103CD000E9FDD0214FF44940FCF7E4FD02214CF608
:103CE0000110FCF7DFFD50214CF60210FCF7DAFD65
:103CF00050214CF60310FCF7D5FD50214CF6041072
:103D0000FCF7D0FD00214FF45450FCF7CBFD5521BA
:103D10004FF46850FCF7C6FD4FF48850FCF774FD73
:103D2000782001F040F94FF42450FCF76DFD76E265
:103D3000FE48808841F663118842F8D1E220FCF702
:103D400063FD4FF48070FA490861400048611D200E
:103D5000F84908608020F6494861086180000861E0
:103D600040100861400048610220F249086080204C
:103D7000EF49486108618000086140100861400017
:103D800048610420EB4908608020E94948610861E6
:103D900080000861642001F006F9E020FCF734FDA2
:103DA0004FF48070E2490861400048610120E14918
:103DB00008608020DE4948610861800008610A20AF
:103DC00001F015F9E020FCF71FFD4FF48070D84991
:103DD0000861400048610320D64908608020D4492A
:103DE00048610861800008610C2001F000F90120A1
:103DF000FCF70AFD0A2001F0FAF8E620FCF704FDC2
:103E00004FF48070CA490861400048612F20C949B9
:103E100008608020C6494861086180000861401040
:103E2000086140004861FF20C24908608020C04905
:103E300048610861800008614010086140004861E5
:103E4000FF20BC4908608020B949486108618000B2
:103E50000861B020FCF7D8FC4FF48070B4490861C9
:103E6000400048612020B34908608020B049486183
:103E7000086180000861401008614000486100202E
:103E8000AC4908608020AA49486108618000086147
:103E900040100861400048610320A6490860802066
:103EA000A349486108618000086140100861400032
:103EB000486140F21F309F49086080209C4948615A
:103EC00008618000086140100861400048610120DD
:103ED000984908608020964948610861800008611F
:103EE000401008614000486140F2DF1091490860CD
:103EF00080208F4948610861800008614010086196
:103F00004000486100208B49086080208849486152
:103F1000086180000861B420FCF776FC4FF48070E3
:103F2000834908614000486104208249086080207C
:103F30007F494861086180000861401008614000C5
:103F4000486140F21F407B49086080207849486101
:103F5000086180000861401008614000486100204D
:103F600074490860802072494861086180000861D6
:103F700040100861400048612E206E490860802092
:103F80006B49486108618000086140100861400089
:103F900048610020674908608020654948610861E0
:103FA00080000861401008614000486100206149BC
:103FB000086080205E494861086180000861401007
:103FC00008614000486100205A4908608020584933
:103FD0004861086180000861401008614000486144
:103FE00000205449086080205149486108618000E0
:103FF0000861B620FCF708FC4FF480704C4908615A
:104000004000486102204B490860802048494861CF
:1040100008618000086140100861400048614FF469
:10402000037044490860802041494861086180006C
:104030000861401008614000486100203D49086067
:1040400080203B4948610861800008614010086198
:104050004000486117203749086080203449486192
:104060000861800008614010086140004861152027
:104070003049086080202E4948610861800008614D
:10408000401008614000486100202A4908608020F3
:1040900027494861086180000861401008614000BC
:1040A0004861002023490860802021494861086157
:1040B00080000861F020FCF7A7FB4FF480701C49DA
:1040C00008614000486103201A49086080201849AF
:1040D00048610861800008612920FCF795FBD02029
:1040E000FCF792FB4FF48070114908614000486171
:1040F00000201049086080200D4948610861800057
:104100000861BE20FCF780FB4FF48070084908610D
:104110004000486105200749086080200449486143
:104120000861800008614010086105E00803002074
:10413000001001400C0C014040004861FE20F9498C
:1041400008608020F84948610861800008614010DB
:104150000861400048610120F24908608020F2496E
:1041600048610861800008614010086140004861B2
:104170000020EC4908608020EB494861086180001C
:10418000086140100861400048610020E54908606E
:104190008020E5494861086180000861401008619D
:1041A000400048610020DF4908608020DE49486106
:1041B000086180000861B820FCF726FB4FF480708E
:1041C000D9490861400048610320D6490860802031
:1041D000D5494861086180000861401008614000CD
:1041E00048610120CF4908608020CF4948610861BB
:1041F00080000861BA20FCF707FB4FF48070CA49C1
:104200000861400048610120C64908608020C64915
:1042100048610861800008616420FDF774F800209F
:10422000FDF7D4F80120C14908604FF6FF70FDF793
:1042300034FB08BD2DE9F04F05460E46174698465B
:10424000DDF824A04FF0000B781B401C1FFA80FB08
:1042500034461EE021462846FCF761FBFCF73EFB96
:104260004FF0000911E04FF48070AF490861400041
:104270004861AC48C0F800A0802048610861800017
:10428000086109F101001FFA80F9D945EBDB601CD8
:1042900084B24445DEDDBDE8F08F2DE9F84F0746D6
:1042A0000D4690469946DDF828B0A8EB0700401C63
:1042B0001FFA80FAA9EB0500401C80B20090002490
:1042C00020E0281981B23846FCF729FBFCF706FBF1
:1042D000002613E04FF48070934908614000486164
:1042E00004FB0A603BF810008E49086080208E496C
:1042F0004861086180000861701C86B25645E9DBA0
:10430000601C84B200988442DBDBBDE8F88F2DE9A5
:10431000FF4F84B081468A460020039002900698A1
:10432000A0EB09050798A0EB0A06CDF80490CDF89C
:1043300000A0002D01DD012705E00DB9002702E0F6
:104340004FF0FF376D42002E02DD4FF0010806E00E
:1043500016B94FF0000802E04FF0FF387642B54240
:1043600001DD2C4600E034464FF0000B21E0009ABE
:1043700091B2019A90B2FCF771FE03982844039021
:104380000298304402900398A04205DD0398001B78
:1043900003900198384401900298A04205DD0298EC
:1043A000001B02900098404400900BF101001FFA9E
:1043B00080FB601C8345DADD08B0BDE8F08FF0B506
:1043C00004460D4616461F462B46324629462046D1
:1043D000FFF79DFF3B46224629462046FFF797FF01
:1043E0003B46324639462046FFF791FF3B46324670
:1043F00029463046FFF78BFFF0BD2DE9F043064616
:104400000F469046002445460320A0EB48093CE0B7
:104410007A1B91B2321990B2FCF720FE3A1B91B28E
:10442000721990B2FCF71AFE3A1991B2721990B251
:10443000FCF714FE7A1991B2321990B2FCF70EFE15
:104440007A1991B2321B90B2FCF708FE3A1991B278
:10445000721B90B2FCF702FE7A1B91B2321B90B233
:10446000FCF7FCFD3A1B91B2721B90B2FCF7F6FD13
:10447000641CB9F1000F03DAA000801D814404E040
:10448000601B80000A3081446D1EAC42C0DDBDE877
:10449000F0832DE9F84F80460E4617461C46B3467A
:1044A0002046E31704EB5373DB1021464FEAE47C0C
:1044B00004EB5C7C4FEAEC0CA4EBCC0CBCF1000FE1
:1044C00002D04FF0010C01E04FF0000C6344224693
:1044D00004EBD27C4FEA6C0C03FB0CF3DBB20093D1
:1044E000A7F12000C7B2002563E00C2C07D107EB31
:1044F00047000F4901EB800010F8059020E0102CD8
:1045000005D10C4800EB071010F8059018E0182CA6
:1045100014D107EBC700084901EB800010F80590A3
:104520000EE000000C0C014000100140A8012242E6
:10453000087A00087C7E00086C840008BDE8F88FCB
:104540004FF0000A2FE009F0800030B1D84802880F
:1045500031464046FCF79CFD07E00A9828B9D5484B
:10456000028831464046FCF793FD4FEA49604FEA26
:104570001069701C86B2D0484088B04200DCDDE78C
:10458000A6EB0B00A0420AD15E4608F101001FFA1B
:1045900080F8C9480088404500DCCFE706E00AF112
:1045A000010000F0FF0ABAF1080FCCDB00BF681C65
:1045B000C5B20098854298DB00BFBFE710B5024640
:1045C000012000E050430B00A1F10104E1B2F9D158
:1045D00010BD2DE9FF4F81B0074691461E460E9D46
:1045E0004FF0000A002439E0301B401EC1B20A20FF
:1045F000FFF7E4FFB9FBF0F00A21B0FBF1F201FB99
:104600001208BAF1000F16D1701EA04213DDB8F1E6
:10461000000F0ED10020AB4605EBDB71491001FB0A
:104620000471009088B22B4620220299FFF731FFD7
:1046300012E04FF0010A0020AB4605EBDB71491098
:1046400001FB0471009088B208F13001CAB22B4618
:104650000299FFF71EFF00BF601CC4B2B442C3DB67
:1046600005B0BDE8F08F2DE9FF4F82B006469246B7
:104670001F46DDE90F480020019000254DE0781B22
:10468000401EC1B20A20FFF799FFBAFBF0F00A21E1
:10469000B0FBF1F201FB1209019850BB781EA84251
:1046A00027DDB9F1000F22D108F0800078B108F0C1
:1046B0000100A34604EBDB71491001FB056100908A
:1046C00088B2234630220399FFF7E3FE0EE008F09C
:1046D0000100A34604EBDB71491001FB056100906A
:1046E00088B2234620220399FFF7D3FE13E001206E
:1046F000019008F00100A34604EBDB71491001FBB7
:104700000561009088B209F13001CAB223460399CD
:10471000FFF7BFFE00BF681CC5B2BD42AFDB06B0ED
:10472000BDE8F08F2DE9F84704460D4690469946BE
:10473000DDE9096704F0FF0A08EB04001FFA80F8BE
:1047400009EB05001FFA80F916E0444502DB5446E8
:10475000A81985B24D4500DB14E0002000903A789E
:10476000334629462046FFF794FE304606EBD071CB
:1047700004EB61018CB27F1C38787E2802DC38782B
:104780002028E2DA00BFBDE8F8872DE9FC5F064685
:104790000C4617469846A346002001900090202022
:1047A000019046A1384602F07FFE10B944480090BF
:1047B00039E044A1384602F077FE10B94248009033
:1047C00031E042A1384602F06FFE10B94048009037
:1047D00029E040A1384602F067FE10B93E4800903B
:1047E00021E03EA1384602F05FFE10B93C4800903F
:1047F00019E03CA1384602F057FE10B93A48009043
:1048000011E03AA1384602F04FFE10B93848009046
:1048100009E038A1384602F047FE10B9364800904A
:1048200001E0BDE8FC9F00253CE0009810F80590F1
:104830004FF0000A30E009F0800038B100201C4938
:10484000088021463046FCF709FC09E00C9838B98D
:104850004FF6FF701649088021463046FCF7FEFBF4
:104860004FEA49604FEA1069601C84B212484088E0
:10487000A04200DCD5E7A4EB0B00404508D15C4624
:10488000701C86B20C480088B04200DCC9E706E024
:104890000AF1010000F0FF0ABAF1080FCBDB00BFFC
:1048A000681CC5B201988542BFDB00BFB9E70000B4
:1048B000200000202200002008030020D0FD00007E
:1048C00024000020D7AA000044000020B1DB000033
:1048D00064000020B0DA000084000020B8CB0000A3
:1048E000A4000020BDC70000C4000020B6C800001E
:1048F000E40000203A0000000401002000B587B069
:1049000001214FF4047000F07BFF4FF4004000F0F1
:10491000DBFE0220ADF8040000208DF8070001A99D
:10492000634800F0B1FC634801F040FA00200290B7
:104930008DF80C008DF80D004FF4602004900020DD
:10494000059001208DF8180002A95A4801F055FA87
:104950000121584801F07DFA564801F09CFA00BF49
:10496000544801F09DFA0028FAD1524801F0A2FA09
:1049700000BF504801F0A3FA0028FAD107B000BDEB
:1049800010B504460723012221464A4801F0CDFA1A
:104990000121484801F09DFA00BF0221454801F07D
:1049A00009FC0028F9D0434801F026FB10BD2DE991
:1049B000F04107460C460025002605E03846FFF783
:1049C000DFFF0544701CC6B2A642F7DBB5FBF4F06E
:1049D00080B2BDE8F08100B587B001214FF40470CA
:1049E00000F00EFF4FF4004000F06EFE0420ADF822
:1049F000040000208DF8070001A92D4800F044FCB8
:104A00002C4801F0D3F9002002908DF80C008DF8AD
:104A10000D004FF4602004900020059001208DF8D7
:104A2000180002A9234801F0E8F90121214801F00A
:104A300010FA204801F02FFA00BF1E4801F030FAAA
:104A40000028FAD11B4801F035FA00BF194801F0DF
:104A500036FA0028FAD107B000BD10B50446072386
:104A600001222146134801F060FA0121114801F0AA
:104A700030FA00BF02210F4801F09CFB0028F9D05A
:104A80000C4801F0B9FA10BD2DE9F04107460C467B
:104A90000025002605E03846FFF7DFFF0544701CBF
:104AA000C6B2A642F7DBB5FBF4F080B2BDE8F081F8
:104AB000001001400024014000B587B001210846E4
:104AC00000F0ABFE0121042000F09AFE012108460F
:104AD00000F096FE0320ADF8000004208DF80300DE
:104AE00069463A4800F0D0FB04A801F087FF002097
:104AF000ADF810004FF6FF70ADF814000020ADF8CF
:104B00001600ADF8120004A94FF0804001F04AFCF5
:104B100000231A4603214FF0804002F052F801A80A
:104B200001F07FFF0A20ADF80C0001A9400701F059
:104B3000CCFE0121880702F057FA012211469007A6
:104B400001F0A7FF00214FF0804002F01BFA012185
:104B5000880701F083FF07B000BD0146022906D097
:104B600003290DD0042912D005291ED116E04FF0DB
:104B70008042928C10B200224FF080439A8416E05B
:104B8000134A128810B20022114B1A800FE0114A0A
:104B9000128810B200220F4B1A8008E00E4A1288C9
:104BA00010B200220C4B1A8001E0002000BF00BFB1
:104BB00070474FF08040008A4FF08040008A20F01C
:104BC00001004FF08041088270470000000801405A
:104BD0002404004024080040240C004008B50121B2
:104BE000102000F00DFE3020ADF8000010208DF8F0
:104BF000030002208DF802006946374800F044FBAC
:104C00003021354800F0EDFB08BD30B589B00546D0
:104C10000C46FFF7E3FF0121480300F0F1FD0121FD
:104C2000042000F0EDFDC020ADF8200018208DF824
:104C3000230003208DF8220008A9284800F024FB57
:104C4000ADF81850ADF814400120ADF81A0000205E
:104C5000ADF8160005A9224801F0A4FB6020ADF8CC
:104C600004000120ADF806000020ADF80A00ADF800
:104C70000C004FF40070ADF8120001A9184801F0C3
:104C8000CEFB0821164802F019F86020ADF80400A8
:104C90000120ADF806000020ADF80A00ADF80C00C8
:104CA0004FF40070ADF8120001A90D4801F0F9FBB6
:104CB00008210B4802F00BF80121094801F0CEFF52
:104CC0000121074801F0CAFE00200549383108805B
:104CD000091F088009B030BD0010014000080140E4
:104CE0000004004008B50121142000F089FD0121D5
:104CF0009C4800F09AFB3C20ADF8000048208DF85D
:104D000003006946984800F0BFFA4FF4C850ADF868
:104D1000000010208DF803006946934800F0B4FAB3
:104D20000820ADF8000010208DF8030069468F4878
:104D300000F0AAFA08BD10B5044614B101208C4950
:104D4000087000224FF48071874800F04EFB00226B
:104D50004FF40061844800F048FB00224FF480517A
:104D6000814800F042FB00220821804800F03DFB12
:104D70007F48007800286FD004217B4800F017FBA3
:104D800078B10821784800F012FB50B11021764824
:104D900000F00DFB28B12021734800F008FB00282B
:104DA0005AD100224FF480716F4800F01EFB01229F
:104DB000D1026D4800F019FB012211036A4800F08E
:104DC00014FB01220821694800F00FFB042166480A
:104DD00000F0EDFA08B9012010BD0821624800F08A
:104DE000E6FA08B90220F7E710215F4800F0DFFA81
:104DF00008B90320F0E720215B4800F0D8FA08B991
:104E00000420E9E701221102574800F0EEFA0022DF
:104E10004FF40061544800F0E8FA012211035248AF
:104E200000F0E3FA01220821504800F0DEFA0421E4
:104E30004D4800F0BCFA08B90520CDE708214A48E2
:104E400000F0B5FA08B90620C6E71021464800F080
:104E5000AEFA10B90720BFE767E02021424800F012
:104E6000A6FA08B90820B7E7012211023E4800F06F
:104E7000BCFA0122D1023C4800F0B7FA00224FF4FC
:104E80008051394800F0B1FA01220821374800F07A
:104E9000ACFA0421344800F08AFA08B909209BE7EB
:104EA0000821314800F083FA08B90A2094E710215C
:104EB0002D4800F07CFA08B90B208DE720212A4804
:104EC00000F075FA08B90C2086E701221102264885
:104ED00000F08BFA0122D102234800F086FA012269
:104EE0001103214800F081FA002208211F4800F038
:104EF0007CFA04211C4800F05AFA08B90D206BE72F
:104F00000821194800F053FA08B90E2064E710216F
:104F1000154800F04CFA08B90F205DE7202112482F
:104F200000F045FAD8B9102056E704210E4800F0E9
:104F30003EFA012813D108210B4800F038FA012865
:104F40000DD11021084800F032FA012807D12021A4
:104F5000054800F02CFA012801D10549087000200D
:104F60003AE7000000023000000801400010014054
:104F70002D01002010B56FF0040000F0F8FE2E485F
:104F800000682E49B0FBF1F02D4908700846007802
:104F900000EB4001C1EBC0104FF6FF7101EAC00009
:104FA0002849088010BD0146254A12784A434FF02F
:104FB000E0235A6100229A611A46126942F0010206
:104FC0001A6100BF4FF0E022106900F001021AB12F
:104FD00000F48032002AF5D04FF0E022126922F06E
:104FE00001024FF0E0231A6100229A6170470146E6
:104FF000144A12884A434FF0E0235A6100229A6112
:105000001A46126942F001021A6100BF4FF0E02215
:10501000106900F001021AB100F48032002AF5D0C4
:105020004FF0E022126922F001024FF0E0231A61F2
:1050300000229A61704700000C00002000127A00E4
:105040002E0100203001002000BF704700BF4A4AF7
:10505000128802F04002002AF9D0C2B2464B1B1D52
:105060001A80704710B586B00446012144F204004E
:1050700000F0C6FB4FF40070ADF8140003208DF86B
:10508000160018208DF8170005A93C4800F0FCF820
:105090004FF48060ADF8140004208DF8170005A9C6
:1050A000364800F0F1F825208DF8000003208DF837
:1050B00001008DF8020001208DF80300684600F021
:1050C0000CFE01940020ADF80800ADF80A00ADF820
:1050D0000C00ADF810000C20ADF80E0001A9264818
:1050E00000F035FC012240F22551234800F0C7FCB6
:1050F0000121214800F0B7FC06B010BD10B540F208
:1051000025511D4800F0A0FD10B31B4800F01CFD08
:10511000C4B21B48008800F40040C8B91848008891
:1051200000F4804060B10A2C03D0002014490880AC
:1051300020E01348008840F400401149088019E03D
:105140000D2C06D10E48008840F480400C490880A0
:1051500010E00B480088C0F30D000A490C540848C1
:105160000088401C0649088008460088C72801DDE1
:105170000020088010BD00000038014000080140F8
:1051800038010020160300200948804709480047DD
:10519000FEE7FEE7FEE7FEE7FEE7FEE7FEE7FEE7E7
:1051A000FEE7FEE704480549054A064B7047000044
:1051B000B70600083101000840040020400A002022
:1051C000400600204006002010B50446CC4884422A
:1051D00008D10121042000F02DFB0021042000F063
:1051E00029FB46E0C748844208D10121082000F08D
:1051F00021FB0021082000F01DFB3AE0C248844258
:1052000008D10121102000F015FB0021102000F032
:1052100011FB2EE0BD48844208D10121202000F07E
:1052200009FB0021202000F005FB22E0B848844261
:1052300008D10121402000F0FDFA0021402000F0BB
:10524000F9FA16E0B348844208D10121802000F029
:10525000F1FA0021802000F0EDFA0AE0AE48844225
:1052600007D10121801500F0E5FA0021A01500F01A
:10527000E1FA10BD10B50121084600F0DBFA00216B
:10528000012000F0D7FA10BD2DE9F04102460025BB
:105290000026002000230024002791F803C00CF012
:1052A0000F0591F803C00CF0100CBCF1000F03D0F7
:1052B00091F802C04CEA050591F800C0BCF1000F5E
:1052C00031D0146800202BE04FF0010C0CFA00F3F1
:1052D000B1F800C00CEA03069E4220D183004FF0D3
:1052E0000F0C0CFA03F7BC4305FA03FC4CEA040468
:1052F00091F803C0BCF1280F06D14FF0010C0CFA55
:1053000000FCC2F814C00AE091F803C0BCF1480FD9
:1053100005D14FF0010C0CFA00FCC2F810C0401C83
:105320000828D1D31460B1F800C0BCF1FF0F34DD00
:10533000546800202EE000F1080C4FF0010808FA34
:105340000CF3B1F800C00CEA03069E4221D18300A1
:105350004FF00F0C0CFA03F7BC4305FA03FC4CEAC0
:10536000040491F803C0BCF1280F05D100F1080C2A
:1053700008FA0CF8C2F8148091F803C0BCF1480F89
:1053800007D100F1080C4FF0010808FA0CF8C2F838
:105390001080401C0828CED35460BDE8F0814FF641
:1053A000FF710180022181700421C17070470246A3
:1053B000002093680B400BB1012000E000207047F3
:1053C0000146886880B2704702460020D3680B40CF
:1053D0000BB1012000E0002070470146C86880B290
:1053E000704701617047416170470AB1016100E097
:1053F00041617047C16070474FF480320A43826157
:105400008161826182698269704702460020434B54
:1054100018684FF68073184040EA021008433F4B6B
:10542000186070473E49C8617047F0B50A460023CE
:1054300000240021002500F00046B6F1004F02D103
:10544000364EF16901E0354E7168C0F3034583B211
:1054500000F44016B6F5401F08D121F070612F4EC0
:10546000766826F070662D4F7E6012E000F480169C
:10547000B6F5801F06D1032606FA05F4A14341F0D4
:10548000706106E0460D360103FA06F6B14341F0BD
:10549000706122B1460D360103FA06F6314300F081
:1054A0000046B6F1004F02D11C4EF16101E01B4EE7
:1054B0007160F0BD30B500228B071C0F0F2303FA7B
:1054C00004F2164B08338C1053F824309343134CDA
:1054D00008348D1044F8253023468C1053F82430BE
:1054E0008C07240F00FA04F423430C4C08348D106D
:1054F00044F8253030BD0A49DC31086070470000AF
:1055000000080140000C014000100140001401405F
:1055100000180140001C0140002001400000014033
:1055200000002042DF48006840F00100DD490860CB
:1055300008464068DC490840DA4948600846006887
:10554000DA490840D74908600846006820F48020FE
:1055500008600846406820F4FE0048604FF41F00D1
:1055600088607047CF49096821F48031CD4A1160C5
:105570001146096821F480211160B0F5803F03D005
:10558000B0F5802F0ED106E0C649096841F480319C
:10559000C44A116007E0C349096841F4A021C14A27
:1055A000116000E000BF00BF704710B50146002247
:1055B000002300204A11012A02D1BA4C236806E0D8
:1055C000022A02D1B74C236A01E0B64C636A01F0AB
:1055D0001F02012494401C400CB1012000E0002077
:1055E00010BD38B5002000900024002500BF3120F8
:1055F000FFF7DBFF05460098401C00900098B0F5CF
:10560000A06F01D0002DF2D03120FFF7CEFF08B1FE
:10561000012400E00024204638BD01460020A14AB4
:10562000106820F0F80040EAC10010607047A049FF
:1056300008607047024600209A4B586820F47C109E
:1056400042EA01031843974B58607047984908662F
:10565000704701460020934A506820F00300084339
:10566000506070478F48406800F00C00704701465A
:1056700000208C4A506820F0F000084350607047CA
:1056800001460020874A506820F4E06008435060DB
:10569000704701460020834A506820F4605040EA79
:1056A000C1005060704729B17E4A527A02437D4B57
:1056B0005A7204E07B4A527A82437A4B5A7270479C
:1056C0007B49D8310860704701460020754A506810
:1056D00020F440400843506070470021714A203256
:1056E0001170704A82F82010012802D004280AD1D3
:1056F00004E001216B4A2032117005E00521694A5E
:105700002032117000E000BF00BF70476949086097
:1057100070476449096A0143624A116270476549EA
:1057200044390860704730B500210022002400236E
:105730005C4D6D6805F00C0121B1042905D00829E4
:1057400023D105E05C4D056022E05B4D05601FE064
:10575000544D6D6805F47012524D6D6805F4803437
:10576000022505EB92421CB9544D554305600BE0F0
:105770004C4D6D6805F400351DB1504D5543056025
:1057800002E04D4D5543056002E04B4D056000BF02
:1057900000BF444D6D6805F0F0010909484D6B5C90
:1057A0000568DD4045603F4D6D6805F4E061090A1C
:1057B000434D6B5C4568DD4085603A4D6D6805F48E
:1057C0006051C90A3E4D6B5C4568DD40C560354D92
:1057D0006D6805F44041890B3A4D6B5CC568B5FBBB
:1057E000F3F5056130BD29B12E4A526902432D4BB4
:1057F0005A6104E02B4A526982432A4B5A6170472E
:1058000029B1284A92690243264B9A6104E0254A4D
:1058100092698243234B9A61704729B1214AD26928
:105820000243204BDA6104E01E4AD26982431D4BD9
:10583000DA61704729B11B4AD2680243194BDA601A
:1058400004E0184AD2688243164BDA60704729B1E7
:10585000144A12690243134B1A6104E0114A126997
:105860008243104B1A6170471249403908607047F3
:105870000F49C86470470B49C87170470948406AAE
:1058800040F0807007494862704701460020054A91
:1058900092680A400AB1012000E0002070470149E7
:1058A00088727047001002400000FFF8FFFFF6FE0C
:1058B000000042428004424200127A0000093D008A
:1058C0003A0100204A01002010B50446FB488442FA
:1058D00009D101218803FFF7ADFF00214FF480407B
:1058E000FFF7A8FF32E0F648844209D101214804BD
:1058F000FFF7ADFF00214FF40030FFF7A8FF25E0D0
:10590000F048844209D101218804FFF7A0FF00215B
:105910004FF48020FFF79BFF18E0EB48844209D149
:105920000121C804FFF793FF00214FF40020FFF787
:105930008EFF0BE0E548844208D101210805FFF7FE
:1059400086FF00214FF48010FFF781FF10BD2DE985
:10595000F04786B005460E460024A24600BFA14689
:105960000027B08900B100BF2F462C8A4CF6FF708B
:105970000440F08804432C82AC894EF6F3100440B6
:10598000B08831890843718908430443AC81AC8AEB
:105990004FF6FF400440B0890443AC8201A8FFF7F2
:1059A000C2FEC648874202D1DDF810A001E0DDF852
:1059B0000CA0A88900F4004040B10AEBCA0000EB3B
:1059C0000A1031684900B0FBF1F807E00AEBCA00A1
:1059D00000EB0A1031688900B0FBF1F86420B8FBD5
:1059E000F0F004012009642101FB1089A88900F46A
:1059F000004040B1322000EBC900B0FBF1F000F0F4
:105A00000700044308E0322000EB09106421B0FBDA
:105A1000F1F000F00F0004432C8106B0BDE8F087E0
:105A20004FF41651016000218180C18001810C2159
:105A3000418100218181704710B502460020108A03
:105A40004FF2FF0318400B884C8823438C88234374
:105A5000CC8823431843108210BD0021018041806F
:105A60008180C180704721B1828942F400528281D5
:105A700004E082894DF6FF731A4082817047F0B5C9
:105A80000346002400260025002040F66A17B9428C
:105A900000D100BF1846C1F3421401F01F060127D0
:105AA00007FA06F5012C01D10C3004E0022C01D1DB
:105AB000103000E014301AB107682F43076002E08D
:105AC0000768AF430760F0BD1AB1838A0B43838236
:105AD00002E0838A8B4383827047028A4FF6F07319
